:020000040800F2
:10000000F80F0020ED030008E9030008E9030008E9
:1000100000000000000000000000000000000000E0
:10002000000000000000000000000000E9030008DC
:100030000000000000000000E9030008090E0008AD
:10004000E9030008E9030008E9030008E9030008E0
:10005000E903000885270008E9030008E903000810
:1000600000000000B1260008E903000800000000BD
:10007000D52C0008E9030008E9030008000000008F
:10008000ED270008E903000800000000E90300086C
:1000900000000000D51E0008E9030008E90300087D
:1000A00000000000E903000800000000E903000868
:1000B000E90300080000000000000000000000004C
:1000C00002780B78002A03D0013001319A42F7D030
:1000D000D01A7047002934D00123002210B488427E
:1000E0002CD301242407A14204D2814202D2090167
:1000F0001B01F8E7E400A14204D2814202D2490088
:100100005B00F8E7884201D3401A1A434C08A0422A
:1001100002D3001B5C0822438C08A04202D3001BC0
:100120009C082243CC08A04202D3001BDC082243D7
:10013000002803D01B0901D00909E3E7100010BC17
:10014000704701B5002000F05FF802BD0029F8D02B
:1001500003B5FFF7C1FF0EBC4243891A1847C046DA
:10016000002941D010B404004C40A44601230022D1
:10017000002900D54942002800D5404288422CD3AE
:1001800001242407A14204D2814202D209011B01A9
:10019000F8E7E400A14204D2814202D249005B00A8
:1001A000F8E7884201D3401A1A434C08A04202D310
:1001B000001B5C0822438C08A04202D3001B9C0851
:1001C0002243CC08A04202D3001BDC0822430028B3
:1001D00003D01B0901D00909E3E710006446002C95
:1001E00000D5404210BC704701B5002000F00CF86B
:1001F00002BDC0460029F7D003B5FFF7B3FF0EBC20
:100200004243891A1847C0467047C0461C21012343
:100210001B04984201D3000C10391B0A984201D3E9
:10022000000A08391B09984201D30009043902A2C7
:10023000105C40187047C04604030202010101012E
:1002400000000000000000000100343138C9043B08
:100250009C461D60A646010020313CC99046994647
:10026000A246AB4601000831FCC941680068E5467A
:1002700000BDC0467047C0467047C0467047C04684
:100280007047C0467047C0467047C0467047C0467A
:100290007047C0467047C0467047C04601B401A8C9
:1002A00001B585B0FFB408A841464A4653465C46AE
:1002B00065463EC001A83EC80F98009000230CB4CC
:1002C00001A905F00FFC109B12B0184701B401A85A
:1002D00001B585B0FFB408A841464A4653465C467E
:1002E00065463EC001A83EC80F98009000230CB49C
:1002F00001A905F028FC109B12B0184701B401A811
:1003000001B585B0FFB408A841464A4653465C464D
:1003100065463EC001A83EC80F98009000230CB46B
:1003200001A905F031FC109B12B0184701B401A8D7
:1003300001B585B0FFB408A841464A4653465C461D
:1003400065463EC001A83EC80F98009000230CB43B
:1003500001AB05F0EEFB109B12B0184701B401A8E9
:1003600001B585B0FFB408A841464A4653465C46ED
:1003700065463EC001A83EC80F98009000230CB40B
:1003800001AA05F05FFC109B12B0184702B4714639
:1003900049084900095C49008E4402BC7047C046C8
:1003A00010B5064C2378002B07D1054B002B02D04B
:1003B000044800E000BF0123237010BD6C00002042
:1003C000000000008C640008044B10B5002B03D023
:1003D0000349044800E000BF10BDC0460000000013
:1003E000700000208C640008FEE7C0462549264ABC
:1003F0004B6812681B0C1B041343802292011343A9
:1004000010B5224A4B60224B934209D20321013A94
:10041000D21A8A43191D52181E4902C39342FCD1B5
:100420001D4B1E4A934209D2013AD21A9208013258
:1004300092001B49D21802C39342FCD119481A4BAF
:1004400098420BD2013B1A1A002392080132174C32
:100450009200E158C15004339342FAD1144B154A2B
:10046000934209D20321013AD21A8A43191D521824
:10047000002102C39342FCD105F0C8F900F0FEFC54
:1004800010BDC04600100240040FFF1FF80F0020EF
:10049000300A0020A5A5A5A5300A0020300A0020BA
:1004A000EAEAEAEA000000206C0000204C6D000837
:1004B0006C000020300A002010B505F0A1F91623C9
:1004C00003600120404210BD01207047FEE7C04696
:1004D0007047C0460F4B70B519680400002901D160
:1004E000012070BDFA208000FFF7F4FD0A4D0100E5
:1004F0002868FFF7EFFD00F063F80028F0D1032C27
:10050000EED801380022210000F030F8034B002023
:100510001C60E6E704000020000000200800002026
:1005200010B50320FFF7D6FF041E02D001242000DF
:1005300010BDFFF7CDFFFAE7034A044913680968C5
:100540005B1813607047C04688000020040000203C
:10055000014B18687047C046880000200221024AFB
:1005600013688B431360704710E000E0FF22032301
:1005700010B514000340DB009C4089010A40E443AD
:100580009A4000280BDB0C4B80089C46C02380005F
:1005900060449B00C1580C401443C45010BD0F234D
:1005A000064903408C46083B9B089B006344D9697D
:1005B00021400A43DA61F1E700E100E000ED00E0EC
:1005C0008022431E5204012093420ED2C021074ACA
:1005D00007485360036A09061B021B0A0B430362A8
:1005E00000230020936007331360704710E000E0A1
:1005F00000ED00E030B587B001AA1100234B31CBEC
:1006000031C111CB11C138200400214B99680C4035
:1006100008420DD119685B683138C90A5B0B01408B
:100620001840042817D9A4001059C84007B030BD9D
:1006300099680140082910D09968014010290ED00E
:100640009A680240202A19D09B6818401838434203
:100650005841C003EAE70400E5E70E48E6E7012455
:100660002100D868014004420DD15B681B045B0F78
:10067000042B06D9890050584000D7E7802000029B
:10068000D4E71900F6E70448D0E7C046A4640008A0
:100690000010024000366E01006CDC02F0B5CE4660
:1006A000474680B504008BB0002800D10AE1012143
:1006B0000368194227D03822C7488568C0682A4095
:1006C000102A00D1F2E0082A00D1F2E06368002B82
:1006D00000D0FDE0C04DC14A2B68802713402B603D
:1006E0002B68BF4ABF0213402B60FFF731FF0600A3
:1006F00005E0FFF72DFF801BC82800D957E12B68C4
:100700003B42F6D123689A0735D53827B24B9A6811
:10071000DB681740102F00D1F5E0002F00D0F5E086
:10072000AD4B1B685B0503D56369002B00D1C9E0A5
:10073000A94DE2696B681B0C1B0413436B60FFF748
:1007400007FF8023DB000600984605E0FFF700FF67
:10075000801B022800D92AE142462B681342F5D0BB
:10076000002F00D1E4E19F4B1868FFF7B3FE00288B
:1007700000D0A7E023681A071DD53822964DA96836
:100780000A40182A00D1E6E0236A002B00D110E1CC
:1007900001222B6E022713432B66FFF7D9FE0600BA
:1007A00005E0FFF7D5FE801B022800D9FFE02B6E85
:1007B0001F42F6D023685B0752D53823864A9168DA
:1007C0000B40202B00D12DE180230020D16B5B0555
:1007D0008146194208D1D16B1943D163D26B1340C2
:1007E0000193019B0123994680277F4E7F00336848
:1007F0003B4200D1CCE0E368002B00D11BE1C022DA
:10080000216992027448114200D12EE10269774EAB
:1008100032400A430261012B00D140E1052B00D098
:100820009AE104216C4BDA6D0A43DA65DA6D03391B
:100830000A43DA65FFF78CFE674B060098460227ED
:100840006B4D05E0FFF784FE801BA84200D9AEE0A7
:100850004346DB6D1F42F5D04B46012B00D10CE126
:10086000636A002B20D038225B4DA9680A40102A09
:1008700000D108E1022B00D116E12B685D4A8026E9
:10088000134001222B60EB68B6049343EB60FFF743
:100890005FFE040005E0FFF75BFE001B022800D9A5
:1008A00085E02B683342F6D100200CE0014200D1F4
:1008B0000CE7494A1268920300D424E76268002AD0
:1008C00000D020E701200BB0C0BCB946B046F0BD57
:1008D000A0680028F6D00C253F4A1169A9430143BE
:1008E0001161802149028B423ED0A020C002834288
:1008F00000D03BE180231068DB02034313601368E0
:100900001943116033E0DB0700D409E76369324D16
:10091000002B73D02B68384A80271340A269FF0050
:1009200013432B6080232A685B0013432B60FFF77F
:100930000FFE060004E0FFF70BFE801B022836D8EE
:100940002B683B42F7D06B68E2691B0C1B04134316
:100950006B6023680FE72A6E920700D42BE7226AA8
:10096000002A00D027E7ADE711680B431360FFF7BB
:10097000EFFD80260500184FB60204E0FFF7E8FD02
:10098000401BC82813D83B683342F7D02368BAE627
:1009900033683B433360FFF7DBFD050033683B42C0
:1009A00000D028E7FFF7D4FD401B0228F6D903202A
:1009B00089E701222B6E022793432B66FFF7C8FDC0
:1009C000060004E0FFF7C4FD801B0228EFD82B6E61
:1009D0001F42F7D12368EEE600100240FFFFFEFF42
:1009E000FFFFFBFF0800002000700040FFFFFCFF3E
:1009F00088130000FFFFFFFEFFC7FFFF2B68604A60
:100A0000802713402B60FFF7A3FDFF00060004E0E2
:100A1000FFF79EFD801B0228C9D82B683B42F7D107
:100A20002368A8E6D36D9B0700D419E7E368002B81
:100A300000D015E746E70122524E534DF36D934324
:100A4000F365F36D03329343F365FFF781FD0223F2
:100A50000700984604E0FFF77BFDC01BA842A6D81C
:100A60004246F36D1A42F6D1F6E60169474A114053
:100A7000802292020A430261CDE6424A4449D36B86
:100A80000B40D363ECE6012B00D11BE70120EB68A0
:100A90001840A36AC01A431E9841C0B213E73949EF
:100AA000CA6D1343CB65C5E62B683A4A80271340CD
:100AB0002B60FFF74DFDBF04060005E0FFF748FD82
:100AC000801B022800D972E72B683B42F6D1A16A4D
:100AD000002911D102A802002F4BD0CBD0C2D0CB1D
:100AE000D0C250CB50C26B681B045B0F9B001A58DE
:100AF0002A4B9A4200D8E5E60122224C8026E36880
:100B0000B60493430B43E360802322685B041343E2
:100B10002360FFF71DFD050005E0FFF719FD401BF1
:100B2000022800D943E723683342F6D00020CAE602
:100B30002B681B4A1340A26913432B60FFF75AFD31
:100B4000AB68184A1B051B0F9B009B581F221340C4
:100B5000D8401549086006E601210A4BDA6D8A4340
:100B6000DA65DA6D03318A43DA6563E613680F49A3
:100B70000B40136013680E490B401360F7E6C04644
:100B8000FFFEFFFF0010024088130000FFFFFCFF84
:100B9000FFFFFFEFFFFFFFFEB8640008FF23F40034
:100BA000FFC7FFFFD864000800000020FFFFFEFF22
:100BB000FFFFFBFFF8B5CE46474604000D0080B5A9
:100BC00000285BD00122524E336813408B4257D32A
:100BD00023689A070ED55A0705D5E0224D49D20160
:100BE000886802438A604B494B488A680240A06883
:100BF00002438A60DB0722D56268464B012A3AD05D
:100C0000002A5CD11B685B0538D50721414EB368CB
:100C10008B431343B360FFF79BFC382398463F4B4D
:100C20000700994604E0FFF793FCC01B48453CD8F9
:100C30004346B2681A406368DB009A42F3D101224E
:100C4000334E33681340AB4242D823685B072ED43F
:100C5000FFF7D0FC2F4B324A9B6832491B051B0F14
:100C60009B009B581F221340D84008600020C0BC46
:100C7000B946B046F8BD1B689B03C6D40120F6E711
:100C8000336893430B433360FFF762FC01239846BC
:100C9000224B07009946424633681340AB4297D037
:100CA000FFF756FCC01B4845F5D90320DFE7194A7A
:100CB0001D4993680B40E1680B439360C8E7022A23
:100CC0001FD0042A17D01B6E9B079ED40120CEE7AD
:100CD0003368012793433360FFF73AFC0F4B05005D
:100CE000984633681F42B0D0FFF732FC401B4045A6
:100CF000F7D90320BBE7DB6D9B0700D585E7012013
:100D0000B5E71B689B0100D57FE70120AFE7C04630
:100D10000020024000100240FFF0FFFF8813000097
:100D2000D864000800000020FF8FFFFFA0230321EC
:100D30000220DB051A6882B08A431A601A680243EF
:100D40001A609A6806308A439A609A680A439A60E1
:100D50001A6A0C318A431A621A6A05390A431A62FE
:100D60001A6802318A431A601A6802431A609A6844
:100D700018308A439A609A680A439A601A6AE43182
:100D80008A431A621A6AC0391A621A688A431A6058
:100D90001A6802431A609A688A439A609A680A43FA
:100DA0009A6015491A6A0A4080211A621A6A490132
:100DB0001A62124B1A6C0A431A641A6C0A400092A7
:100DC000009A0122196C114319641B6C38211A40D6
:100DD00001920022019B0A4B1A601A688A431A602A
:100DE0001A680A431A601A6834390A431A60054AB5
:100DF0005A6002B07047C046FFF0FFFF001002408B
:100E0000003001400410000010B5FFF795FB10BD45
:100E100000B591B02822002106A804F0E9FC1022B8
:100E20000021684604F0E4FC0B230593F5330A9394
:100E3000114B05A81A6880231B0213430C930C2343
:100E400007930B3B0D9301330E93FFF727FC00280C
:100E500000D0FEE707220223009201930022002324
:100E60000121684602920393FFF7A4FE002800D0F8
:100E7000FEE711B000BDC046100FFF1F10B5FFF711
:100E80004FFBFFF76BFB02F073F8FFF7C1FF00F0B9
:100E90006BFD01F02BFCFFF749FF01F0E1FE00F0D4
:100EA000EFFD00F0BBFF0028FBD100F079FFF8E771
:100EB000FF23C4210120F0B51D1C324C324B4901E7
:100EC00025709A681042FCD09A680A42FCD12278B8
:100ED000FF2AF5D0FF232D4F0122380023702C4B21
:100EE000284CFE18013BFF3B27491D1C25708B68D1
:100EF0001A42FCD0237803700130B042F6D10122AF
:100F000021498B681A42FCD01E4B1F491A78204B8E
:100F1000FA54C42252018B681342FCD1FF22194BB0
:100F200019491A70FE3A8B681A42FCD0C42216493D
:100F300052018B681342FCD1124B13491A78FF22DD
:100F40001A70FE3A8B681A42FCD0C4210E4A49013D
:100F500093680B42FCD10B4B1B780E4B1B78002B7C
:100F600004D00D4A136801331360F0BDA023102193
:100F7000DB059961136830318B4313600123064A06
:100F80005B42F1E70C30014000300140940000204A
:100F9000FF010000910000200C000020F0B540236C
:100FA000FF250C0E240203432D040D4023430C0A9D
:100FB00083B024062B4323436C46627102222171C5
:100FC000244D25490093A61D8B681A42FCD0237836
:100FD00001342B70A642F7D1C4211F4A49019368FE
:100FE0000B42FCD19368C022D200134205D0194CA9
:100FF000194923788B681342FBD10C2818D0FF23A2
:10100000C421082501241F1C124E134B49013770BF
:101010009A681442FCD09A680A42FCD13278D0B265
:1010200052B2002A02DA013D002DF0D103B0F0BD2A
:10103000FF22084B08491A70FE3A8B681A42FCD00E
:10104000C422054952018B681342FCD1014B1B7825
:10105000D5E7C0460C300140003001404021124A23
:1010600010B5136804000B431360A0238022DB0536
:1010700052039A610D4B01001B78002B00D14102F5
:1010800001221120FFF78AFF002802D1084B1C60C3
:1010900010BDA02310224021DB059A61024A0120E5
:1010A00013688B431360F3E7003001409000002089
:1010B0000C0000204021144A10B5136804000B43B3
:1010C0001360A0238022DB0552039A610F4B0100BD
:1010D0001B78002B00D1410201221220FFF75EFF96
:1010E000002805D101220A4B1C600A4B1A7010BD62
:1010F000A02310224021DB059A61034A01201368D6
:101100008B431360F3E7C04600300140900000209D
:101110000C0000209100002010B5012200210C20BD
:10112000FFF73CFF00282CD101222A4B52421A60C3
:10113000294B10211870A023DB059961274B284902
:101140001A7002328B681A42FCD0C4222449520120
:101150008B681342FCD1214B21491A78FF221A7067
:10116000FE3A8B681A42FCD0C4211D4A490193689B
:101170000B42FCD14021194B1B7813688B43136041
:1011800010BDA0231022DB059A61144BEF321449E5
:101190001A70FE3A8B681A42FCD0C42210495201E0
:1011A0008B681342FCD10D4B0D491A78FF221A703F
:1011B000FE3A8B681A42FCD0C421094A490193685F
:1011C0000B42FCD14021054B01201B7813688B4357
:1011D0001360D5E70C000020910000200C30014086
:1011E00000300140F8B54746CE460C0080B51500EA
:1011F00007001E00531C00D14D1C3C4A3C4B91463D
:10120000126898461B68A24229D09C4244D05A1CBE
:1012100001D09D4231D1631C2000AB4219D0FFF7B1
:101220001DFF002819D1FFF743FE4B461C604346C3
:1012300030491C68089B7118012B44DD1A003800E6
:1012400004F0C4FA013438D00020C0BCB946B0461E
:10125000F8BDFFF72FFF0028E5D00120F5E75A1C65
:1012600022D09D4212D12349089B7118012B36DDF3
:101270001A00380004F0AAFAE6E7FFF74DFF00284D
:10128000EBD1631C2000AB42C9D1E2E7FFF744FF7A
:101290000028CCD00120D8E7FFF70AFE4B461C609F
:1012A00043461B685A1CDCD11249089B7118012B5C
:1012B0000FDD1A00380004F089FA6B1CC4D0280036
:1012C000FFF7F8FEC0E7089B012BBBD10B783B7002
:1012D000B8E7089B012BF0D10B783B70EDE7089B3A
:1012E000012BB1D10B783B70AEE7C0461000002057
:1012F0000C00002094000020F8B5BC4B04001B68D3
:101300000D0001330CD1002C10D08022B84F920078
:101310003B68EB18934207D8002D3DD1002004E034
:10132000FFF7FAFE0028EED00120F8BD002D55D0C1
:101330004021B04A13680B431360A0238022DB05D1
:1013400052039A61AC4B1B78002B00D16D02012235
:1013500029001820FFF722FE002800D0FCE002221E
:10136000A4498B681A42FCD0FE22C421A34B490138
:101370001A70A04B9A680A42FCD1C0229B68D20026
:10138000134205D09D4C9B4923788B681342FBD1B7
:101390000022974B1A60C8E70222964897496619BF
:1013A00083681A42FCD0237801340B70B442F7D121
:1013B000C421904A490193680B42FCD19368C02232
:1013C000D200134205D08D488A4903788B681342B6
:1013D000FBD13B6800205B193B60A6E78023844F6C
:1013E0009B003A689A421BD2C425C02402210026E1
:1013F0009C46804A81486D01E40093681942FCD004
:10140000067093682B42FCD19368234203D0037883
:1014100093682342FBD13B6801333B606345ECD3C7
:10142000022274498B681A42FCD0FF22734B714927
:101430001A70FD3A8B681A42FCD0FF22C4216F4B10
:1014400049011A706B4A93680B42FCD19368C02221
:10145000D200134205D06948664903788B6813426D
:10146000FBD1FF23C42101201E1C644C614B4901A8
:1014700026709A681042FCD09A680A42FCD1227801
:10148000D5B2FF2AF4D01F232B40052B00D08BE0D0
:10149000FF23C42101201E1C594C584D554B4901B6
:1014A0002E709A681042FCD09A680A42FCD12A78C1
:1014B000002A29D1013C002CF2D1A0231022DB0507
:1014C0009A61FF234B4A2B70FE3B91680B42FCD084
:1014D000C423484A5B0191681942FCD1474B1A78F2
:1014E000FF221A700123434A91680B42FCD0C422A8
:1014F000404B520199681142FCD140213F4A127879
:101500001A688A431A600FE7A0231022DB059A614C
:10151000FF2338492B700F3A8B681A42FCD0C42243
:10152000344952018B681342FCD1344B31491A784B
:10153000FF221A70FE3A8B681A42FCD0C4212D4A51
:10154000490193680B42FCD140212C4B00201B78B1
:1015500013688B431360E8E6A0231022DB059A6131
:10156000264BEF3223491A70FE3A8B681A42FCD0A0
:10157000C422204952018B681342FCD11F4B1D49E4
:101580001A78FF221A70FE3A8B681A42FCD0C421E6
:10159000184A490193680B42FCD14021174B1B7834
:1015A00013688B431360BFE6A0231022DB059A610A
:1015B000FF23104923700F3A8B681A42FCD0C422D3
:1015C0000C4952018B681342FCD10C4B09491A7823
:1015D000FF221A70FE3A8B681A42FCD0C421054AD9
:1015E000490193680B42FCD1D7E7C0460C000020AC
:1015F0008C00002000300140900000200C300140A1
:1016000081969800F0B54E464546DE465746E0B511
:10161000012600223821C64B764285B01E60C54B9C
:101620000A241E60C44B01201A70C44BC44D1A70AA
:101630000193C44B1A688A431A601A680A431A60F5
:101640001A6808310A431A60A0223039D205916124
:10165000C42149012E709A681042FCD09A680A424F
:10166000FCD1013C2A78002CF4D102AA0323944631
:10167000A02580276344994610260434ED057F0396
:10168000952200210020AF61FFF788FC4B461870BF
:10169000AE611B78012B10D0013CE4B2002CEFD1DD
:1016A00000204021A74A13688B43136005B0F0BCAB
:1016B000BB46B246A946A046F0BDFF22042392468F
:1016C000904601269B469E4F9E4C43463B70A36826
:1016D0001E42FCD0C4225201A3681342FCD13B78C5
:1016E00053463B70A3681E42FCD0C4225201A3683B
:1016F0001342FCD13B78A0258023D5215B03ED0567
:10170000AB61872208204900FFF748FC4B46187060
:101710001B78012B00D1DCE01023AB615B46013B61
:10172000DBB29B46002BD0D10093854BC425984655
:10173000FF239A468023A0275B0301269B46814C0A
:101740006D01FF054346FF221A70A3681E42FCD0BC
:10175000A3682B42FCD1434652461B7843461A707D
:10176000A3681E42FCD0A3682B42FCD143461B78E1
:101770005B460122BB6100213720FFF70FFC4B467F
:10178000187010235246BB6143461A70A3681E426C
:10179000FCD0A3682B42FCD1434652461B784346FB
:1017A0001A70A3681E42FCD0A3682B42FCD14346AA
:1017B00080211B785B460122BB612920C905FFF708
:1017C000EDFB4B4618701023BB614B461B78002B7A
:1017D000B8D14246FF33137001225A498B681A422E
:1017E000FCD0C422574952018B681342FCD1544BA0
:1017F00054491A78FF221A70FE3A8B681A42FCD0BC
:10180000C422504952018B681342FCD14C4DA02494
:101810002B788023E4055B03A36100213A20009A22
:10182000FFF7BCFB4B4618701B78002B02D010232F
:10183000A36135E7FF232B7002AB03ACDF1DFF2351
:10184000200001223F491E1C2E708B681A42FCD0DA
:101850002B7803700130B842F6D1012239498B68E8
:101860001A42FCD0C422364B36491B785201E37031
:101870008B681342FCD1009A0023002A02D02378FF
:101880005B06DB0F019A2F491370FF222C4B1A7055
:10189000FE3A8B681A42FCD0C4222A4952018B6856
:1018A0001342FCD1264B10211A78A022D205916157
:1018B000FF2224491A70FE3A8B681A42FCD0C422D7
:1018C000204952018B681342FCD11D4B01201B782B
:1018D000E7E6FE333B7002AB03ACDF1DFF232000C5
:1018E0000122174D17491E1C2E708B681A42FCD01E
:1018F0002B7803700130B842F6D1012211498B6870
:101900001A42FCD0C4220E4B0E4918785201C0B2C4
:101910008B681342FCD1A3780093012B02D1AA2833
:1019200000D102E7A0231022DB059A61B8E6C04689
:10193000100000200C0000209100002090000020EA
:101940000C3001400030014010B5FFF75BFE012371
:10195000002805D03821034A13688B431360002305
:10196000180010BD00300140012230B53E4B83B05D
:10197000596B3E4811435963596B3D4D0A400092E3
:10198000009A0222596B114359635B6B1A40019212
:10199000019BA023DB051A6802401A6080221968A7
:1019A00052000A431A60102259689143596099689D
:1019B00001409960C02198688900014399609A614B
:1019C00019682C4801401960C0211C680901214395
:1019D000202419605968A1435960996801409960B1
:1019E00019682940196080211868C90108431860E6
:1019F00080205C6884435C609C682C409C609C6890
:101A000004252143996080213024090499611A4BEF
:101A10001968A14319601968114319605968A943ED
:101A200059609968A143996099680A43C0219A60F6
:101A30001A688A431A601A6802431A608022196A77
:101A400052010A431A621A680C490A401A6080223D
:101A5000196892010A431A608022196A52040A43E3
:101A60001A6203B030BDC04600100240FFFCFFFF09
:101A7000FF3FFFFFFFF3FFFF00040050FFCFFFFF1A
:101A800000B583B000F0AAFC80210C4B89021A6CCF
:101A90000A431A641B6C0A4A0B4001210193019B03
:101AA000084B9A62DA680A438021DA60064A8903A1
:101AB000116000221A6003B000BDC0460010024051
:101AC0007FBB00000044014000E100E010B50A497E
:101AD0000A4B09681A7A022906DD012A06D05889BC
:101AE000074901F093F810BD022AF8D10020998926
:101AF00001F08CF8F7E7C04614000020D808002059
:101B0000FF0F000070B5414D04002B68834227D0C1
:101B100000292AD13E4A117CD07B002921D0012CFA
:101B200000D16BE0002822D0042C4BD0E11E01290B
:101B300020D8042437498C61917B022904D1A0214B
:101B40008020C9058861D07B0021334A032451627B
:101B5000D0620120116801431160012B52D02C602A
:101B600070BD002801D0042C2CD0012C15D0E21E11
:101B7000012A31D9022CF2D1254A117C8022254B31
:101B8000D2029A610022244B02245A62D9620121B6
:101B90001A680A431A602C60E2E780221D4BD202C9
:101BA0009A611B4B9B7B022B06D000F037FC0A226C
:101BB0001A4B2C601A70D3E7A0238022DB05120495
:101BC0009A61F2E713498C61927B022ABCD1A02270
:101BD0008021D2059161B7E704210E4A91610C4A38
:101BE000917B022903D1A0218020C9058861032CA3
:101BF000A9D00021094A04241170AEE70028BDD005
:101C0000117CBBE700F044FC2C60A9E71400002025
:101C1000D808002000040050004401409402002035
:101C2000154B10B51B68032B0BD0022B00D010BD39
:101C3000124A1378092B0DD813780133DBB21370D5
:101C4000F5E70E4A1378002B0DD01378013BDBB279
:101C50001370ECE701210A4A012013688B431360DB
:101C6000FFF750FFE3E70121054A042013688B4387
:101C70001360FFF747FFDAE714000020940200200A
:101C80000044014070B5040000F0FEFA0500022C8B
:101C90000DD0012C16D0002C07D1124B1B68002B45
:101CA0001BD0FFF713FF00F093FF2C6170BD00F015
:101CB000A3FF0D4B0120D97C4B1E9941C9B2FFF700
:101CC00021FFF2E700F098FF074B0420D97C4B1E60
:101CD0009941C9B2FFF716FFE7E701210120FFF79D
:101CE00011FFDEE714000020D808002010B5040022
:101CF00000F0CAFA022C0CD005D8002C0DD003201D
:101D000000F0D0FC10BD032CFCD1022000F0CAFC76
:101D1000F8E7012000F0C6FCF4E700690321013078
:101D2000FEF768FA064C081E02D1207A4342584159
:101D3000FFF7A8FF637C5B07E4D500F0A9FAE1E7B1
:101D4000D808002010B5FFF7D1FF10BD10B5040072
:101D500000F09AFA0369002B10D1104B5A89A24265
:101D60000DD9187A00210138431E984102234042C0
:101D700098430430FFF7C6FEFFF7A8FE10BD9A890E
:101D8000A242F9D21B7A0320013B5A1E93415B42C7
:101D9000184000210130FFF7B5FEEDE7D80800201C
:101DA00070B500F057FB00231A4D2B6000F0A2F82D
:101DB000041E01D1200070BD00F066FA164E737C3F
:101DC0005B071ED4337A002B0CD000F05DFA2B6831
:101DD0000600002B19D0FFF779FE00F0F9FE002372
:101DE0003361E7E700F050FA050000F005FFF17CF1
:101DF00001204B1E9941C9B2FFF784FE02232B61DB
:101E0000D8E70069FFF73EFFD4E701210120FFF783
:101E100079FEE0E714000020D8080020F0B5D6468F
:101E20004F464646C0B582B000F0A2F8002808D15F
:101E300000239846404602B0E0BCBA46B146A846E8
:101E4000F0BD00F085F980460028F1D000F018FAC6
:101E5000837C0500002BEDD06B46DC1D1C4B00275E
:101E60000126994618E0267000F05EF90028DFD0C0
:101E700000239A4600F012FA002808D14B465B7CFA
:101E80001E4204D19B0704D55346002B01D000F01D
:101E90000BFAAB7C002BCDD021002800277000F07E
:101EA00017FB0028DFD02378022B0BD0032BDBD1CC
:101EB00000F0E8F80028BBD000F036F98246002890
:101EC000D8D1B5E700F0B6F80028D1D1B0E7C046C8
:101ED000D80800200122064B10B519690A4200D12A
:101EE00010BD196991431961FFF79AFEF8E7C046E2
:101EF0000044014070B5194803F048F80023002859
:101F000001D0180070BD164C1649200000F0CEFD1F
:101F1000A37B012B1CD0002B14D0637C002B08D199
:101F2000114D2800616800F03FFF00236374012316
:101F3000E7E70D4D0D49280000F0DEFE0028F0D047
:101F40000123DEE7A0238022DB0512049A61E4E787
:101F5000A0238022DB059A61DFE7C046F40200205F
:101F6000D808002018650008E00200202865000855
:101F700010B50449044803F07BFB43425841C0B20A
:101F800010BDC04634650008CC020020F8B5244BD3
:101F900057464E464546DE469946224B80469A466F
:101FA000E0B5214D214F224E6C68E96801346C6028
:101FB0008C420CD3BB7C002B24D0012342461370EF
:101FC0000120F0BCBB46B246A946A046F8BD3B780E
:101FD000002B05D020000323AA6800F0FFFE0400B8
:101FE00033680133A34211D0CB464A462100504604
:101FF00003F08EFB3460002810D15B461B7ADB06B1
:10200000D2D4DDE701235B426B60CDE7044B05488A
:1020100019009B46346003F051FBECE70020D0E749
:1020200098020020B8020020E0020020D80800201A
:10203000180000200E4B10B55C68002C01D0013C4C
:102040005C600C4A1278002A06D020009A68D96891
:10205000032300F0C3FE04002100074A074803F0F1
:1020600057FB074B1C6043425841C0B210BDC046ED
:10207000E0020020D808002098020020B8020020CA
:1020800018000020F0B5C646214B1027984600B531
:10209000204C214E214D2100300003F00FFB002881
:1020A00031D1A37C002B1ED02B6801332B60237A07
:1020B0001F42F0D021004046123103F0D9FA002827
:1020C00021D1404603F05CFBE8600028E3D0012208
:1020D000134B52421A60134B280059686A6000F093
:1020E00073FE012010E00021300003F0E7FA002821
:1020F00009D10122094B5242210030001A6003F03D
:10210000DDFA0028CDD0002080BCB846F0BDC04626
:10211000B802002098020020CC020020E00200203B
:1021200018000020D808002010B582B06B46DC1DD6
:10213000002323702000FFF729FF2378002B02D112
:10214000012002B010BDFFF79DFF0028F2D1F8E793
:10215000454BF0B54E469946122357464546DE4656
:102160009A46424BE0B59846414F424E424D83B0AD
:10217000BA44737C71689B0744D5002902D0AB68D0
:102180008B423FD13A004846296803F0C1FA032840
:1021900037D000282CD13B7ADB0629D55146404662
:1021A00003F066FA002823D1404603F0E9FAE96813
:1021B000814226D1002924D001221000737C1840CE
:1021C00083461A4238D12800716800F0FDFD0123D2
:1021D0005B426B606B46DC1D5B4623702000FFF7A3
:1021E000D5FE2378002BC4D0FFF74CFF0028F5D193
:1021F0000025280003B0F0BCBB46B246A946A04665
:10220000F0BD7168280000F0CFFD0021484603F0C2
:1022100055FAFFF737FF051EEAD06B46DC1D002399
:1022200023702000FFF7B2FE2378002BE1D0FFF7E8
:1022300029FF0028F5D1DBE733786C68002B0CD13F
:102240003A002100404603F063FA0328D9D0002861
:10225000CED10A4B01251C60CBE720000323AA68DE
:1022600000F0BCFD0400EBE7CC020020B802002027
:1022700098020020D8080020E0020020180000206A
:10228000004870479802002000487047E002002094
:102290000122014B1A70704795020020014B1878FB
:1022A000C0B270479502002010B50449044800F000
:1022B0004DFD0022034B1A7010BDC0462865000872
:1022C000E00200209502002000B5B7B0684602F099
:1022D000FFFEFFF7E9FF684602F008FF37B000BDD8
:1022E00080211A4B09011A6C82B00A431A64002239
:1022F0001B6C0B400193019B1549164B9A62D962E6
:10230000882189009963D9631A63C0229969D2012F
:102310000A4360219A61DA690A43DA618822196AFC
:1023200052000A431A628022D96852000A43DA60D6
:102330008022596C12020A435A64802201211A60D9
:102340001A680A431A6002B07047C0460010024083
:102350003C040000002C0140012010B5144B82B059
:102360009A6B144902439A639B6B80240340019348
:10237000019B114B6400DA690A40DA61D9690F4A9E
:102380000A43DA6100230E4A13600E4B54609360D7
:102390000D4B1968814319600C495C6099600C49C8
:1023A000D160D9600B4911600B4A1A6002B010BDB0
:1023B00000100240E0E0FFFF00000140303000006C
:1023C00008000240382C01401C0002403C2C014017
:1023D000E4650008B7050000B105000010B5FFF77F
:1023E000BBFF094A1368591C1160002B09D18021D9
:1023F000064A80338900D150054B064AD360064A0D
:10240000D360FFF76DFF10BDCC03002000E100E0BA
:10241000E4650008080002401C000240084A1368F6
:10242000591C1160002B09D18021064A8033890094
:10243000D150054B054AD360054AD3607047C0466A
:10244000CC03002000E100E0E46500080800024041
:102450001C0002400022094B1A601A68511C1960C6
:10246000002A09D180218023054A8900D150054BDB
:10247000054AD360054AD3607047C046CC030020AC
:1024800000E100E0E4650008080002401C00024092
:10249000094B1A68002A0ED01A68013A1A60002AFD
:1024A00009D18022054B92001A60054B054AD36082
:1024B000054B064AD3607047CC03002000E100E0E2
:1024C000D406002008000240D40400201C00024072
:1024D000F0B5D6464F464646C0B5654CA5440C00FF
:1024E00002F080FE002808D00020AE239B009D440F
:1024F000E0BCBA46B146A846F0BD1022002105A8AE
:1025000003F076F9A5220021920009A803F070F9E2
:10251000584E0421300004AA02F048FF051E75D170
:10252000049B002BE0D0300005A900F015FF002827
:10253000DADB02AB587B00F0E1FE09A800F004FFF3
:102540004D4B1D704D4D9A462B68002B0ED02B68BD
:10255000013B2B60002B09D18022494B92001A606D
:10256000484B494AD360494B494AD360494B0027FD
:10257000984605A800F0C8FE04AA011F404602F0D4
:1025800015FF002843D1049B002B2BD0069B079AF4
:102590005A43039272B63D4A7B009A180192394A17
:1025A00041469B1880220093043905AB520009A8CC
:1025B00000F074FF62B6039A9446BC446346E14659
:1025C0007F2F30DC7F2B24DC53461B78002B09D176
:1025D0000421300004AA02F0E9FE002818D1049B6F
:1025E000002B3DD12B685A1C2A60002B09D1802179
:1025F0008023234A8900D150274B234AD360244AA1
:10260000D36053461B78012023706EE7FEE7FEE798
:10261000FEE7224F02E02B68002B1AD13B78002BFB
:10262000F9D000233B704B46FF2BCDDD1C4F02E061
:102630002B68002B06D13B78002BF9D0002399465C
:102640003B70C1E7FFF72AFE0028F4D0FFF73CFEFD
:10265000F1E7FFF723FE0028E0D0FFF735FEDDE7C6
:10266000300005A900F078FE0028BBD14F4680E776
:1026700048FDFFFFD4030020D0030020CC0300203E
:1026800000E100E0D406002008000240D40400204D
:102690001C000240D8030020E4650008D10300209C
:1026A000D2030020014B18707047C046D0030020B1
:1026B00002220B4B19680A4205D001200949087013
:1026C00059680A435A600422054B19680A4205D02A
:1026D00001200549087059680A435A607047C0468E
:1026E00000000240D1030020D20300200F2110B5CA
:1026F0001E4B82B01A681E488A431A60DA688A4301
:10270000DA60DA680A390A43DA600222194BFF32CA
:10271000196E0A4303211A665A680A435A601A68F6
:102720000A431A600222C46B1443C463C06B0C24B6
:1027300002400192019A1048104A9062C82040005D
:10274000D0625F38FF385063106820431060D06853
:1027500074340843D06080220948520202601A593A
:102760000A431A512023036002B010BD0004005038
:10277000001002400018024080BB0000000400402E
:1027800000E100E00123190010B5144C226811404B
:1027900013420DD0636A312B04D9114B1B69DB4303
:1027A0009B0710D003210F4AD3680B43D36010BDA1
:1027B0006162226813432360094B0B4A19690323A2
:1027C0000B401360EEE7084B02201B68DB435B0005
:1027D0001840FFF7B7FA00236362E3E70004004004
:1027E0000004005000180240D40800201B4A10B515
:1027F00013699B0705D4194B1A690123134213D19E
:1028000010BD174B1B69DB439B0703D101211368E4
:102810008B4313600221114A13698B4313610F4BE1
:102820001A6901231342EBD00D4A1269134209D0F1
:102830000B4B1B699B070CD50121084A13698B437D
:102840001361DDE70320FFF77DFA054B1B699B074A
:10285000F2D40120FFF776FAEEE7C046000400400C
:10286000000400500A7810B5303AD3B20024092B86
:102870000DD8A3001B195B000131D4180A78303A37
:10288000D3B2092BF5D9022C00D910BDE4B20472E1
:10289000FBE7C0460A7810B5303AD3B20024092BC2
:1028A0000DD8A3001B195B000131D4180A78303A07
:1028B000D3B2092BF5D9022C00D910BDE4B2847330
:1028C000FBE7C0460A7810B5303AD3B20024092B92
:1028D0000AD8A3001B195B000131D4180A78303ADA
:1028E000D3B2092BF5D9E4B2047010BD0A7810B543
:1028F000303AD3B20024092B09D8A3001B195B007E
:102900000131D4180A78303AD3B2092BF5D9446092
:1029100010BDC0460A7810B5303AD3B2092B0FD893
:102920000024A3001B195B000131D4180A78303A47
:10293000D3B2092BF5D9034B1B1B9BB2838110BD6E
:10294000004BFBE7FF0F00000A7810B5303AD3B216
:102950000024092B0AD8A3001B195B000131D418ED
:102960000A78303AD3B2092BF5D9E4B2C47310BD5A
:102970000A7810B5303AD3B20024092B0AD8A30044
:102980001B195B000131D4180A78303AD3B2092BF5
:10299000F5D9E4B2047410BD0A7810B5303AD3B258
:1029A0000024092B0AD8A3001B195B000131D4189D
:1029B0000A78303AD3B2092BF5D9E4B2847410BD49
:1029C0000A7810B5303AD3B20024092B0AD8A300F4
:1029D0001B195B000131D4180A78303AD3B2092BA5
:1029E000F5D9E4B2C47410BD0A7810B5303AD3B248
:1029F000092B10D80024A3001B195B000131D41847
:102A00000A78303AD3B2092BF5D9002C03D004222E
:102A1000437C1343437410BD0A7810B5303AD3B2E7
:102A2000092B10D80024A3001B195B000131D41816
:102A30000A78303AD3B2092BF5D9002C03D00322FF
:102A4000437C1343437410BD0A7810B5303AD3B2B7
:102A5000092B10D80024A3001B195B000131D418E6
:102A60000A78303AD3B2092BF5D9002C03D00222D0
:102A7000437C1343437410BD0A7810B5303AD3B287
:102A8000092B0FD80024A3001B195B000131D418B7
:102A90000A78303AD3B2092BF5D9034B1B1B9BB2F2
:102AA000438110BD004BFBE7FF0F0000F0B5464629
:102AB000D6464F46C0B58046A2B0080002F062FB81
:102AC000002856D16B46DD1C002300269A46019053
:102AD00002AC0121280001AA02F0B8FB002813D1A2
:102AE000019B002B10D02B780A2B14D00D2B12D069
:102AF0007F2E10D023700121280001AA0136013455
:102B000002F0A4FB0028EBD0012022B0E0BCBA46C2
:102B1000B146A846F0BD5346237002AC2378202B63
:102B200001D0092B01D10134F8E73B2B01D0002B58
:102B300002D1002602ACCCE7270003E07B78013706
:102B4000002BF6D03D2BF9D100233B70683399461A
:102B5000094EB14402E008364E45EAD02000316803
:102B6000FDF7AEFA0028F6D140467368791C984705
:102B7000DFE70020C9E7C046E46700080122054BF3
:102B80001A6000225A60044A9A60044ADA60642299
:102B90001A617047D80800200100FF0AFF0C0232BA
:102BA0000A4A93685B0707D5102193680B4393602B
:102BB0000C3993681942FCD10121044A93688B4374
:102BC000936093681942FCD17047C04600240140CD
:102BD0000123084A91680B420AD191680B430121F5
:102BE000936093681942FCD0042193680B4393606F
:102BF0007047C04600240140034B10B59B68DB07BB
:102C000001D5FFF7CDFF10BD0024014070B5124D76
:102C1000124A2B6A0C0404431340A34203D0AB684E
:102C20005B0701D42C6270BDAB68DB0701D5FFF7F1
:102C3000B7FF0123084A2C6291680B42F3D19168D7
:102C40000B430121936093681942FCD004219368DF
:102C50000B439360E7E7C04600240140FF0FFF0FDE
:102C6000802110B5164B49031A6C82B00A431A64CE
:102C70001B6C0B400193019B124B9B68DB0701D53A
:102C8000FFF78EFF20230F4CA36280231B06A36057
:102C9000A368002BFCDB80220B4B52011A600B4B0C
:102CA0000020E36007236361793363600849FFF71D
:102CB000ADFF0422A3681343A36002B010BDC04659
:102CC000001002400024014000E100E00030C01488
:102CD000FF0F000070B58025064C23681D4200D10F
:102CE00070BD206C80B2FFF731F823682B4323605E
:102CF000F6E7C0460024014010B5040082B0080089
:102D000002F040FA002300281CD1042101AA20006F
:102D100002F09CFA042101AA201D02F097FA20007B
:102D2000042101AA083002F091FA2000042101AA2E
:102D30000C3002F08BFA20000421103001AA02F0BE
:102D400085FA0123180002B010BDC04610B504007A
:102D500082B0080002F016FA0023002821D10421D5
:102D600001AA200002F0D4FB042101AA201D02F0D8
:102D7000CFFB2000042101AA083002F0C9FB20008B
:102D8000042101AA0C3002F0C3FB2000042101AA97
:102D9000103002F0BDFB0021002001AA02F0B8FBB8
:102DA0000123180002B010BD01235B4210B503607F
:102DB000436000230400C360002901D0A16010BD5E
:102DC00000F0F4F80100F9E710B50400002901D083
:102DD000A16010BD00F0EAF80100F9E7F0B5454642
:102DE000DE4657464E46E0B58BB00500904605914D
:102DF0000493012900D1A9E000D8B0E0481EFDF7F6
:102E000005FA20231B1A01209840FDF7FFF91F2324
:102E10001B1A5A08039306929C1A049928008B46A1
:102E20008B005B445B015B1A5A019B189B005B1A89
:102E30005A01D21A13029B1A1B019B4401231A0048
:102E400006998A40013A07921A00A240013A099273
:102E5000039A21009340013B0893039B012B00D868
:102E600076E00600079BCE401D001E40002960D082
:102E7000099B1F001840049B002B45DD069B8946DB
:102E80009C46394B00240193029104E04946150009
:102E9000E14618008C46424662401218130C5A4014
:102EA000019B5A43D30B5A40D10089184B015B1A3E
:102EB0009B009B1899015B181902C91A890089188F
:102EC0008B005B1A5B009B189A009B181A0C5340EE
:102ED000264A2B409246734054443A0006002F0085
:102EE0002B40A345D2D10299039A002A12D1059B07
:102EF000002B2BD1002925D1049B002BFCDD0020C9
:102F0000002600250027B9E7039B002B17D00300FC
:102F10008C463000624690401843089B1840059B41
:102F200083429AD90BB0F0BCBB46B246A946A04634
:102F3000F0BD049B002B0EDD002000279EE7059BC3
:102F4000002B03D100260020002591E70020E9E7AF
:102F5000002600258AE7002330009C46C4E70023B2
:102F600000240693039358E72D35EB7FB179379E04
:102F700080210C4B09021A6C82B00A431A641A6C45
:102F80000A4001210092009A074A116080219A6B41
:102F900049010A439A639B6B0B400193019B02B06A
:102FA0007047C0460010024000200040054B596A9F
:102FB000054B1A684A401A601A68044B1A60186870
:102FC0007047C04600200040EC080020003002405E
:102FD0004168F8B50B1F04000C2B2DD80078002891
:102FE00001D18B0729D1A5682B1F042B24D8AB074F
:102FF00022D1A678AF00731E5A4253412A004A4399
:10300000DBB21001032E19D0022E1ED0721E964183
:10301000B040B74010262038C01B9940FDF7A0F8FB
:1030200075430300A84200DD2B00E268D917D00FDA
:1030300093424841C0B200E00020F8BD5201203A5E
:10304000E800101A2026401BE7E75201203AE8006A
:103050002026101AE1E7C046F0B54E46DE46574638
:103060004546E0B597B005928268814603928C464A
:103070004378042A00D130E15B019A469D4A92448C
:103080004B4601249A7800230398023AD2B2944224
:103090005B41810006AA002800DC23E10024100027
:1030A000A0460026444667014C46E4789B4600252E
:1030B0002300674406E0A64200DA260044510435A6
:1030C0008D4219D07C59002BF5D153460092DA4637
:1030D0000DE05A59A41AE217121BD20F1441A6424E
:1030E00000DA2600445104358D420CD07C59002C66
:1030F000EFD105246442F2E75B46203043450CDD06
:103100000124A046CEE71C005346A246009A434540
:1031100003DD039C002C00DDDBE04846C0680400B2
:103120000490701C002C00DCE1E082460F208446F5
:10313000881883460020B444894661468446029339
:1031400001235B429846039B56466546C244002BCA
:1031500020DD00235F46C817009001934B46904640
:10316000F81A03680024B34203DB009ADC0F99428B
:1031700054419B1B5A42534104301B19ED18B8426D
:10318000EFD1029B019842462037834202DD0123A2
:103190000193E3E7049B0139AB4201DDAC46CFE785
:1031A000E34649465046029B039C002C00DC87E026
:1031B000002594462E0015001A000B00059C710195
:1031C000A0464144002490461A000B002F590021CC
:1031D0003F1A012F03DD3900102F00DD1021195196
:1031E00004349442F2D1130042462035B2426EDCE0
:1031F000411C62468C4603990027002960DD039933
:103200005D468A460599130089463A00049FAF42FD
:1032100030DD900093461C00424600269846484404
:103220000BE00F290CDC0131013501602034203026
:10323000B24218DD0126BD4215DA01680029F0D13D
:1032400023686345F1D1012300936B1CBB4201DB72
:1032500000230093009B20345B00C9180160ED1827
:103260002030B242E6DC434690465A4601320433EF
:103270009245CCD1059A4346924600229146039A44
:103280002E000F20002590469C46049BB34217DD7C
:103290005446002702E00127B34209DD2268D10F1E
:1032A000904269415218226076182034BC45F2DC05
:1032B000012293460332D9449346DA44C845E5D106
:1032C00017B0F0BCBB46B246A946A046F0BD0126E9
:1032D00074E701242030A046E4E61B019A46064A22
:1032E0009244CDE600241000A04600260FE70024FB
:1032F000A34659E72C6A0008AC6A0008014B80001D
:10330000C0587047346B000870B50400FFF760FECA
:10331000002816D06268A378E068A16850435A1E5E
:10332000544262411C00651EAC4190408A00A2409C
:103330008018032B03D00730C008043070BD40183C
:10334000F9E70020FAE7C046A52210B50021920057
:1033500002F04EFA10BDC04670B588B006000D00F0
:1033600020220021684602F043FA042204230821A7
:10337000684602920393019601F0BCFB0300AD3B4B
:103380005A4253416C462B70AD284DD09C2803D037
:103390000120404208B070BD059B012B6BD9049AF7
:1033A000023BDA40032005931040384A125C6A70F1
:1033B000012B5AD92269023BDA4003206361104095
:1033C000013080006860012B49D92269023BDA4054
:1033D0000320636110402E4A125CAA70002B38D083
:1033E0002269013BDA40012063611040294A125CE6
:1033F000EA70002B27D02269013BDA40012063618B
:10340000104001308000A860072B17D92269083BC3
:10341000DA40FF201040E8602800FFF7D9FD0028BF
:10342000B6D0207F4042B5E7059B0F2B29D92A0053
:10343000194B43CB43C21B681360EDE70821200002
:1034400001F058FBE7E70121200001F053FB63691D
:10345000D7E70121200001F04DFB6369C6E7022197
:10346000200001F047FB6369B5E70221200001F06D
:1034700041FB6369A4E70221684601F03BFB059B21
:1034800093E71021684601F035FBD0E7306B000868
:10349000306B00082C6B0008446B0008F0B5DE466A
:1034A000454657464E46E0B5184C1500A5449B4688
:1034B0000C1E03902CD0032A1DD91AAB9A465246F3
:1034C00004205160042100231C901D9108215046C6
:1034D00013705361137701F00DFB0300AD3B5A42AB
:1034E00053415A461370AD2801D101F0F1F99C28DF
:1034F00001D100F0A7FC01204042C3239B009D4462
:10350000F0BCBB46B246A946A046F0BDF4FCFFFFA6
:10351000039B5A6898681B680C92002B01DC01F031
:1035200033FA00240C9B039F584342AD46003200FF
:103530000021280002F05CF90022A30018A9CA505B
:103540003B6801350134FF35A342F0DC039B5A6828
:103550009868189B0C920D935B469C780C9B002BF3
:1035600000DC5FE21022944643001493CC9BCC9E77
:1035700063449946039BDB680493042801D101F05E
:1035800041F842AB9A460023E2490E930D9B0D9100
:10359000E1491A00159101210B3399400B0080215C
:1035A000D0469A464B460C329146049A09028B4605
:1035B0001694179005931396002A00D1DDE10A2393
:1035C00001219B1AA022194012934B42013913404A
:1035D0000A400433043203990C338C466344089345
:1035E00043460C32119200229A5E43460E215B5EE6
:1035F000D118D21A434649100E000221595E4346A3
:103600000C20185EB4460B18091A40464910009168
:103610000421415E40460A24045F06960819091BEE
:1036200044464F100621615E44460825655F4E46BC
:103630004C196410A444491B65465B1040104910A6
:1036400002911918C01AB54B0A91691A4B43534499
:1036500033415210110189188900891849008918CD
:103660000B93CB00591ACB000995C91A009DAC4B9E
:1036700001975D434919AB4DAB4E7D43029F4919FC
:103680003D0075434E464919514431410F91A649B9
:10369000A44E51430D0000994E43A91B019DA34E1A
:1036A0005D437E434919891951440E0049460E4134
:1036B00006990796651A410009184901091A4F0130
:1036C000BC464F469A4E614475436D1855443D4182
:1036D000069970430C1B610009194901091B4C0133
:1036E00009190918D004801A80018018009C8F4E97
:1036F000800080186643C000801A80008018841BF8
:1037000010950198884D51446843029D201A2C0061
:103710005C43001B504406003E41009C3941824FEF
:1037200053430296019A814E67437243DB1B9B18F9
:103730002A007C4C099862439B1A42420A984C46E4
:10374000121A520317000B9A53445744234127413E
:103750005A4500DB39E17748824200DA4FE16020C8
:103760004042684414B2129A0898520080180480AB
:10377000079E714CA64200DB1FE18C256F4C445321
:103780006C4CA64200D128E16A4C84826A4CA1426A
:1037900000DB0BE17825694C4453664CA14200D113
:1037A0002BE16449018564498B4200DBF7E0642129
:1037B000624C44525F498B4200D117E15D4B0B993B
:1037C0005D4CA14200DAE8E0594500DD1BE14942C9
:1037D00009B20F9C5C4500DBDDE0564DAC4200DADF
:1037E0000FE160256D426D4424B28387002650238B
:1037F000C652119B9C46039B62449C468C236244A8
:1038000011801099D452594500DBC2E0494B9942CE
:1038100000DAFAE00DB278239482D552029B5B4520
:1038200000DBB1E043498B4200DAF2E0602149421B
:1038300069441BB264211585535293875F4500DBB1
:10384000A0E03C4B9F4200DAE1E03FB25023D75268
:103850000D9B08991C78049BE4B25A00159B0598AF
:103860009C46139E6244009410E0324CDB14A54247
:1038700000DA334B8825009CAD002341AC466344FD
:10388000338002361431283286425DD00025535FE2
:103890000027CD5F5D430223D75E02240B5F7B438D
:1038A0000424175F5B1904240D5F7D43ED18062384
:1038B000D75E06240B5F7B430824175F5B1908243F
:1038C0000D5F7D43ED180A23D75E0A240B5F7B430F
:1038D0000C24175F5B190C240D5F7D43ED180E233C
:1038E000D75E0E240B5F7B431024175F5B191024F7
:1038F0000D5F7D43ED181223D75E12240B5F7B43CF
:103900005B1980256D01AC4663445D135D45ACDBFE
:103910000C4BAFE7940200204C680008A116000091
:103920003E060000631F0000C71100009B1A000044
:10393000901D00000080FFFF0180FFFFFF7F00005F
:1039400000FEFFFFFF010000049B0590082B1DDC1B
:1039500001330493149A0E9B944605990C9A0133F3
:103960006144E0440E930591934261D00E00049AA5
:10397000103E1396002A00D021E60023A4221293C1
:10398000043328E6284F61E7274B53E700230493CD
:10399000E0E7254D3FE7244C27E7234919E75B453E
:1039A0001FDD64232149C1521F4B08E759451FDD24
:1039B00078211E4C44521C49F4E6079C5C4506DD08
:1039C0008C241A4D0553184CDFE6174CCBE68C2699
:1039D000079D6C4284535D45F5D06C461C25645FA1
:1039E000D3E66424594201535B45DDD01BB2E6E6C1
:1039F00078254C4244535945DDD009B2D2E60B4CF0
:103A0000B1E60A4CF1E60949E3E6084D03E7074F42
:103A10001CE7064B0EE74B460593A823039A05992E
:103A20005B00D150002068E5FF7F00000080FFFFB1
:103A3000169C17980399049BCB60002CF2D010249D
:103A4000A446CD9A199B62449146A82252008A58F6
:103A5000CD9E0592042800D1CCE382AA9246002292
:103A60000F92EC4A139615920C2294469C4462469F
:103A7000009201220B339A401300802212029346D7
:103A80004A460692059AD1469A46002A01D100F08C
:103A9000F6FC0A2301219B1A012219409A43129332
:103AA000A023524249421A400B4004320433039986
:103AB00051338C46FF33634409934B465132FF32F6
:103AC000119200229A5E4B460E215B5ED118D21AEB
:103AD0004B4649100E000221595E4B460C20185EE1
:103AE000B4460B18091A48464F100421415E484657
:103AF0000A24005F5B100C18091A48460625405F2F
:103B00004D46491002910821695E641045186D10F8
:103B1000401A4110AC440491614607961E19E41AFC
:103B2000BD4B0A91891B4B430098534403415210EB
:103B30001101891889008918490089180E93CB0052
:103B4000591ACB00C91AB54B01975F430B96C91997
:103B5000B34E029F7E43049F8919B24EB4467E4302
:103B6000891951440E0006411096664656433700A7
:103B70000199AB4E4E43B91B029FAB4E5F43C9192F
:103B8000049F7E43891951440E00079906416F1A1C
:103B9000610009194901091B480180460896A34E96
:103BA000414477437F18079974434D1B69004919B5
:103BB0004901491B4D01491909190D000098574445
:103BC0005544074105416046D104891A8901891885
:103BD000019C954E890089186643C900891A89009D
:103BE00089188C1B02994143611A1C0004985343A5
:103BF0004443091B51440E006046009C019A264133
:103C0000424389489B1A029A0A99424384489B1866
:103C1000049A07960B9E50434A42921B5203524409
:103C2000110021411B1A0E9A534423418C465A45D8
:103C300001DB00F073FC7E498A4201DA00F0D0FC1F
:103C40005C214942694411B2129A099852008018C5
:103C50000180089C77498C4201DB00F056FC8C26E1
:103C60007549815372498C4201D100F07AFC704948
:103C7000818270498D4201DB00F03FFC78246E495F
:103C800001536B498D4201D100F075FC684D6949C3
:103C900005858B4201DB00F028FC6421664C445210
:103CA00063498B4201D100F053FC614B0E99614C8A
:103CB000A14201DA00F013FC594501DD00F084FC5B
:103CC000494209B2109C5C4501DB00F005FC584DEF
:103CD000AC4201DA00F075FC5C256D426D4424B203
:103CE000838700255023C552119B9846039B42446D
:103CF00098468C2342441180D4525F4500DBE9E3AF
:103D00004B4B9F4201DA00F068FC3FB2782394826B
:103D1000D752079B5B4500DBDAE345498B4201DA6A
:103D200000F058FC5C21494269441BB264211785AC
:103D300053529387DC4500DBC8E33D4B9C4501DAD9
:103D400000F045FC63461BB2502153520D9B09996C
:103D50001C78059BE4B25A00159BA0469C46069829
:103D6000139E624411E0324CDB14A54200DA334B5F
:103D700088254446AD002341AC4663443380023677
:103D800014312832864200D15DE30025535F0027BD
:103D9000CD5F5D430223D75E02240B5F7B43042487
:103DA000175F5B1904240D5F7D43ED180623D75E72
:103DB00006240B5F7B430824175F5B1908240D5F03
:103DC0007D43ED180A23D75E0A240B5F7B430C2446
:103DD000175F5B190C240D5F7D43ED180E23D75E32
:103DE0000E240B5F7B431024175F5B1910240D5FBB
:103DF0007D43ED181223D75E12240B5F7B435B19C2
:103E000080256D01AC4663445D135D45ABDB0C4B17
:103E1000AEE7C0464C680008A11600003E06000050
:103E2000631F0000C71100009B1A0000901D0000D6
:103E30000080FFFF0180FFFFFF7F000000FEFFFF0B
:103E4000FF01000053465B69012B01D800F0AFFD74
:103E50005246023B536112690320DA401040594632
:103E6000E04A125C4A70012B01D800F0C9FD5246AD
:103E70001169023BD940536103220A40594601327D
:103E800092004A60012B01D800F0B2FD5246023B7D
:103E9000536112690320DA4010405946D24A125C3D
:103EA0008A70002B01D100F09BFD5246013B53610B
:103EB00012690120DA4010405946CC4A125CCA709F
:103EC000002B01D100F083FD52461169013BD9401E
:103ED000536101220A405946013292008A60072B41
:103EE00001D800F06CFD5246083B53611269FF2077
:103EF000DA4010405A46D060072B01D800F051FD3F
:103F00005246083B53615846FFF762F8002801D13A
:103F1000FFF7F1FA53461E7F002E01D0FFF7EBFAB0
:103F20005846FFF7F1F9A84201D9FFF7E4FA5346E2
:103F300004341E705E615C601E775B4604381C9022
:103F40001D909B780025032B01D100F0E5FC5A1E43
:103F5000934101335B015A469C46966822AA62440B
:103F60000193009222AB002E00DC62E299460F24FE
:103F7000A8464D46002709E052461069043BD84048
:103F800001372040536101C5BE420BD053465B69E7
:103F9000032BF1D80421504600F0ACFD013701C5D8
:103FA000BE42F3D120239C46009BE1449945E0D1D9
:103FB0004546584632AA22A9FFF74EF85B469B7841
:103FC0009946012B01D100F0E5FC22AB002E01DC6B
:103FD00000F01FFD18A884460124180001000027E6
:103FE000002280462B00D340086823401B189F42C4
:103FF00000DA1F00013204319642F3D10E23DF1B99
:104000006346404680C39C46009B20309842E5D1E1
:10401000189B0D934B46032B01D100F0A5FC5B468A
:104020005C68002C7DDD32A98C46019A73006244E5
:104030000792002290460B9342AB1F000A96230082
:1040400046465C466A4A0C9502920B9A049794463F
:1040500018AA914667443900484622AA059232AA16
:1040600006920A9A002A00DC5BE2BB4600910190AE
:10407000089609940123059C9946A046069E049D36
:1040800037680023002F23D043461C6853465B69E2
:104090009F4200D9D2E152461069DB1BD8405361E0
:1040A00001235B42BB409843F0224B4612069446E4
:1040B000019A013412684000A4181C221843013FE1
:1040C000029BBF00FB58121B4343634413411BB2C6
:1040D0002B8004239C46009B02350436E0449D421D
:1040E000CED16B1C059AFF330093049B2032013321
:1040F0000592019AFF3304320493069B0192079ABA
:10410000203306939A42B5D15F46099C089E6368A6
:1041100001369E4299DBA3461C000C9D0A9E002E90
:104120002FDD42AB9C46012200239046770001968A
:104130006246260000951C0004E0019B0134023217
:10414000A3421ED0009B4146E3401942F5D0002E09
:10415000F3DD11000025A4469146501CFF300B886A
:10416000028801359C189B1A0C800380C919C0195C
:10417000B542F4D164464A46019B01340232A3425F
:10418000E0D1504600F0A6FC072308211840091A88
:10419000082914D053465B69994201D900F04DFCBF
:1041A0005246083B1B1810695361D84001235B42FB
:1041B0008B409843002802D00123524613775B4678
:1041C0009C7823005A1E9341039A013313605B4687
:1041D0005968130051605A4690680C919860FFF737
:1041E000BDF9C046306B0008306B00082C6B00082E
:1041F000EC6A00080822934600220792E14AB34481
:104200000B920C2294469C446246009201220B338E
:104210009A4080231B029846DB4B82A99A464B4664
:104220000693059B5F4699464B468B4602920A963B
:10423000002B00D145E10A200121A022C31A194018
:1042400008934B42013913400A4004330432039966
:1042500051338C46FF33634401935B460021595E22
:104260005B465132FF32099206229B5E009DCA18BE
:10427000C91A5B4602201B5E58460424045F521094
:1042800018191B1B40105B10C04C1E00131A5C4316
:10429000029B49109C4664442300B4462B417500A0
:1042A00065446D01AD1B6C01A4460593CB045B1AFC
:1042B0001B015B189B005B18DB005B1A65441B014C
:1042C0005B1B029D0496AC464D006D186D016D1A86
:1042D00069016918049CAE4D12186543491B654677
:1042E000009E5203059863446144AA1A3341314148
:1042F0003241404500DB5CE1504500DA80E105B227
:10430000019C0898A4464000844464462580A14C42
:10431000A14200DB46E164469F4DA587514500D18F
:1043200066E199499B4C059DA54200DA47E1454568
:1043300000DD5FE16C4224B2434500DB3DE15345C3
:1043400000DA5BE11BB26546A982614600250D8556
:1043500009998C46039960448C46604404808387A5
:104360008382424500DB26E1524500DA44E112B285
:104370000D9B02851C784B465A000B9BE4B29C4671
:1043800001990A9E624401940FE0DB14504500DA63
:10439000824B019814310341882080008446634495
:1043A000338002362832BE426FD00020135E0025D3
:1043B000485F58430223CD5E0224135F6B431B18F2
:1043C0000420155E0424085F6843C0180623D55EE8
:1043D00006240B5F6B431B180820155E0824085F3A
:1043E0006843C0180A23D55E0A240B5F6B431B1871
:1043F0000C20155E0C24085F6843C0180E23D55EA0
:104400000E240B5F6B431B181020155E1024085FF1
:104410006843C0181223D55E12240B5F6B431B1830
:10442000802040018446634458134045ADDB5C4B1B
:10443000AFE7009A20339342FBD1BAE539005046EA
:1044400000F058FB30E6059B0690082B4ADC013350
:104450000593149A0F9B944606990C9A0133614474
:10446000E1440F930691934201D1FFF7D6FA0E0073
:10447000059A103E1396002A01D0FFF70AFB00238D
:10448000A42212930433FFF712FB4B46082B75DC72
:1044900001239C46E14408239C46079A069B0C99FD
:1044A0000132E3440792083308378A4201D1FFF70B
:1044B000B2FA069E06934B46083E0A96002B00D0A1
:1044C000B9E60023A42208930433C0E6324B3BE450
:1044D000314B2BE4304F19E42F4CFFF701FC2E49F0
:1044E000FFF7F0FB00230593B3E75B452BDD642367
:1044F0002549C152284BFFF7D9FB5D4536DD7821B0
:10450000214C4452244DFFF7C2FB0899594522DD46
:104510008C211D4C44522049FFF7AAFB1E49FFF78E
:1045200093FB049A059D0132FF3220350492069ACE
:104530000595079D01312032FF3106920430AA42D1
:1045400000D08EE5E4E56424594201535B45D1D0A7
:104550001BB2FFF7ABFB8C26089C614281535C4584
:10456000D9D069462024095FFFF782FB782469428D
:1045700001535D45C6D02DB2FFF789FB0023994654
:1045800089E7C0468C6900080080FFFFA116000083
:10459000901D00000180FFFFFF7F000000FEFFFF75
:1045A000FF01000041451EDD614654468C87D0491D
:1045B000B8E6CF4DA4E6CE4ADAE6CD4BC3E6CC4C06
:1045C000BAE6CC4CFFF78CFBCA49FFF77BFBC94B23
:1045D000FFF7BAFBC74BFFF7A9FBC64FFFF796FBE8
:1045E000C449FFF731FB64464D42A5874145DED003
:1045F00009B297E6BF4C9FE6BE4AB9E6BD4BA2E6BC
:10460000BC4D7DE608239B46002306930D9BB344D7
:104610001A000C320792B84A0B330D92B74A42A9DE
:104620000B9201229A4080231B029846B14B5F46B1
:104630009A464B460593049B8B4699464B460192FE
:104640000E940F900A96002B00D115E10A2001214B
:10465000A022C31A194008934B42013913400A4063
:104660000433043203990C338C46634400935B4655
:104670000021595E5B460C32099206229B5E079D23
:10468000CA18C91A5B4602201B5E58460424045F00
:10469000521018191B1B40105B10994C1E00131A66
:1046A0005C43019B49109C4664442300B4462B4163
:1046B000750065446D01AD1B6C01A4460493CB04E9
:1046C0005B1A1B015B189B005B18DB005B1A6544DF
:1046D0001B015B1B019D0296AC464D006D186D01E0
:1046E0006D1A69016918029C864D12186543491BB1
:1046F0006546079E5203049863446144AA1A3341F5
:1047000031413241404500DBCBE0504500DAD7E093
:1047100005B2009C0898A446400084446446258065
:10472000794CA14200DBB5E06446714DA587514547
:1047300000D1BDE06F49744C049DA54200DAA7E0AA
:10474000454500DDB8E06C4224B2434500DB9DE006
:10475000534500DAAEE01BB26546A98261460025EA
:104760000D8509998C46039960448C466044048009
:1047700083878382424500DB83E0524500DA9DE077
:1047800012B20D9B02851C784B465A000B9BE4B27B
:104790009C4600990A9E624400940FE0DB14504549
:1047A00000DA5A4B00981431034188208000844677
:1047B0006344338002362832BE4243D00020135E69
:1047C0000025485F58430223D55E02240B5F6B43EC
:1047D0001B180420155E0424085F6843C0180623D4
:1047E000D55E06240B5F6B431B180820155E08245A
:1047F000085F6843C0180A23D55E0A240B5F6B4329
:104800001B180C20155E0C24085F6843C0180E238B
:10481000D55E0E240B5F6B431B181020155E102411
:10482000085F6843C0181223D55E12240B5F6B43E8
:104830001B18802040018446634458134045ADDB7B
:10484000334BAFE74B46082B1DDC01239C46E1446C
:1048500008239C46069A059B0C990132E344069274
:10486000083308378A422DD0059E05934B46083EF3
:104870000A96002B00D0E9E60023A4220893043313
:10488000F0E61B4A7DE700239946E1E7184B63E712
:10489000174C5AE7414506DD614654468C8714495A
:1048A00049E7134D35E764464D42A5874145F6D0AB
:1048B00009B240E70F4B4FE70E4C46E70D4A60E761
:1048C0000C4D26E74B460E9C0F980493FFF7B2F869
:1048D00053465B690F2B00D8B4E05246103B53613E
:1048E00059460C4AC1CAC1C112680A60FFF704FBED
:1048F000FF7F00000080FFFF940200208C69000809
:10490000A1160000901D00000180FFFF00FEFFFFC8
:10491000FF010000446B00085B469C68042C00D13A
:1049200097E00821504600F0E5F84023420113408B
:104930002022C1000A401343102241000A401343C1
:10494000082241080A4013430422C1080A401343C5
:10495000022241090A4000061343C00F03431D0011
:104960005B469B78FFF7F3FA199B0D9A9A4200DD9C
:104970000D930D9B189319935B465C68002C01DD29
:10498000FFF751FBFFF7CBFB189B0D935B469C7821
:10499000FEF7E4FD58463AAA2AA9FEF75DFBFFF7A9
:1049A00014FB0821504600F0A5F8FFF7ACFA0221ED
:1049B000504600F09FF853465B69FFF750FA082114
:1049C000504600F097F853465B69FFF793FA0121D0
:1049D000504600F08FF8534602005B69FFF77BFA00
:1049E0000121504600F086F853465B69FFF764FAF0
:1049F0000221504600F07EF853465B69FFF74DFAFE
:104A00000221504600F076F8534602005B69FFF73A
:104A100035FA0E2118AA0098203302C28342FAD137
:104A2000189B0D934B46032B9ED05B465C68002C75
:104A300001DDFFF7F8FAFFF7A4FB504600F05AF843
:104A4000FFF7B8FB1021504600F054F853465B695D
:104A500046E70421504600F04DF843001C40022375
:104A6000420813401C435B460007C00F0443250067
:104A70009B78FFF76CFAC046436930B5182B21D8F4
:104A8000C2680DE0416804694D1C45600978240244
:104A900021430833013A01614361C260182B11D8E8
:104AA000002AEFD120210724C91AA143846965187F
:104AB0009C4208D88561202901D002698A40C91822
:104AC0000261416130BD01256D4285612029F4D12B
:104AD000F5E7C04603008068DA68801A1A78012A70
:104AE00000D104305A699B69C0009A4201D39B1AD5
:104AF000C0187047F0B5C64604000E0000B5202966
:104B000000D920266569002D2AD02369AE423BD901
:104B100001225242AA401900914300226261E268D8
:104B20008846771B032A3AD92021043AE26062685A
:104B30006161101D11000132626009781B020B4394
:104B400023619042F6D12022AD1BAD180122EB402B
:104B500046465242BA401800BE40904330431AE0E5
:104B6000E368032B21D92022043B62616268E36081
:104B70002369101D11000132626009781B020B438A
:104B800023619042F6D120250122AD1B5242B24052
:104B9000EB4093431800656180BCB846F0BD20002F
:104BA000FFF76AFF62692369CEE72000FFF764FF21
:104BB00065692369AAE7C0461300F0B5046912339A
:104BC000002C3BD016000F0012251A36123F7C5DD8
:104BD000202C36D0052C00D1E0340133545501355A
:104BE000B342F4D10C7A3300202C0CD02E240133A4
:104BF0003470263C073E0D5D202D04D03555013420
:104C000001330B2CF7D1CC7A14724C7F0D7F240228
:104C10002C438D7F2D042543CC7F24062C43146028
:104C20004C7E0D7E24022C4394808C7DC97D09022C
:104C30002143D1800169D1600188118200221A705C
:104C4000F0BD1E000C7A3300202CCFD1DBE7C0462C
:104C500000B585B0012807D90E4B1A6893688342C6
:104C600002D91378032B02D0012005B000BDD16812
:104C700004227C330340C009411800929B00053A8E
:104C800003A8FCF7AFFA0028EED103980001000951
:104C9000EBE7C046F0080020F8B5048805000134B1
:104CA000A4B2002C2AD00369002B27D0220702D0FF
:104CB00000202C80F8BD0133144F0361C0683E68AA
:104CC000002818D0B3782209013B1A42F0D1FFF72F
:104CD000BFFF012814D9B36883420FD93A68E8604E
:104CE00093680238023B98420CD293785843536938
:104CF000C0182861DCE7B388A342D9D80320D9E7DC
:104D00000120D7E700202861D2E7C046F008002044
:104D1000F0B504000D0003200F27202683B019E012
:104D20000122238828003B405B0100965242FCF799
:104D300059FA002815D12B78002B17D0E52B04D079
:104D40002E2B02D0EB7A1B0709D52000FFF7A4FF1A
:104D5000002807D121690029E2D1002806D10020CE
:104D600002E001200023236103B0F0BD0320F9E736
:104D70000223012230B583B00093FD33FF3352424A
:104D800004000D00FCF72EFA002820D16378227869
:104D90001B0213430F4A0230934201D003B030BDCF
:104DA000012252230090290020005242FCF71AFAF7
:104DB00003000120002BF1D1607823780002184312
:104DC000054B9C466044431E9841C0B2E6E7032071
:104DD000E4E7C04655AA0000BABEFFFF0E4B1968B3
:104DE000002303808368012B11D08A689A420ED970
:104DF000002B00D10B69C360023A023B934208D2F8
:104E00008A7853434A699B18036100207047012048
:104E1000FCE70023F8E7C046F0080020F0B545465F
:104E2000DE4657464E46E0B5137805000C00904626
:104E300083B0202B06D101239C46E04443461B78D7
:104E4000202BF8D02F3B5A4253419844002342462E
:104E5000AB6012781F2A00D879E0083320269B46E1
:104E60006F683A003B000B321E7001339A42FBD14F
:104E700043461B78202B00D880E008220020914672
:104E8000073A2F2B0FD02E2B50D081450BD9411C28
:104E90003B54C8B24346511C9B5CC9B20A00202B4C
:104EA000EFD8012300E000232800FB729044FFF7B5
:104EB00095FF002842D10F23994604E02800FFF710
:104EC000EBFE00283AD14A462B882969134001227B
:104ED00020005B0100965242FCF784F9002834D18F
:104EE0002378002B29D0E37A58469A461840524638
:104EF0005B461342E2D100236F68E15CFA5C9142A9
:104F0000DCD101330B2BF8D1FB7A002B16D15346A1
:104F1000DB0612D5627D237D12021A43E37EA17E59
:104F20001B0212040B431343AB609AE74B46082B5A
:104F3000B9D10B2308209946ACE7032003B0F0BC9D
:104F4000BB46B246A946A046F0BD0120F6E70E4A90
:104F50002B8012689168002913D013690239EB6025
:104F6000023B8B4208D2917852694B439B18002038
:104F70002B6100232370E1E70023F8E701230122DE
:104F800092E70120F5E7C046F0080020F0B5CE46D4
:104F90004746002380B54C4E8DB004003360FCF7CB
:104FA000D3FCC00700D575E003AF00213800FFF740
:104FB000DFFE00239846012800D16DE0032862D06F
:104FC000002800D077E024230122009341463800D6
:104FD000173B5242FCF706F9051E54D115236B44CA
:104FE0001A785B781B0213430BD1232169444B7859
:104FF0000A781B0213438A7812041A43CB781B06E3
:105000001343FA783978534399460D236B441A7841
:105010005B78F8881B02134398444246E260BA88E2
:10502000A170A28000280ED11F3068448446077802
:105030004078000238436746BF783F040743604624
:10504000C078000638431709DB194B44C01AFBF738
:1050500041F81E4B0230A06098422CD92B216944A4
:105060004B780A781B0213438A78346012041A437F
:10507000CB781B06134323613B0043444B446361DD
:105080000323238000E0012528000DB0C0BCB946F1
:10509000B046F0BD0225F7E7012210330093AF338D
:1050A00000213800FF335242FCF79CF80028EAD177
:1050B0003B79002B01D10625E6E7059B3800190056
:1050C0009846FFF755FE79E7F0080020F6FF00004C
:1050D000054B10B51968002904D0D82200F0BAFB9E
:1050E000002010BD0520FCE7F008002010B5044B9F
:1050F0000100D822186800F0ADFB002010BDC046AA
:10510000F0080020F0B5C6461D4B0F001E6800B524
:10511000002E32D001282CD93400D4233434F4505A
:10512000B578D33B7063B3636D028D421AD2984653
:1051300008E04346A060E360B37808345B02ED18F2
:10514000AF420FD9FFF784FD012812D962682368A6
:10515000D3188342EDD101326260B3785B02ED185F
:10516000AF42EFD800230020A360E36080BCB846C4
:10517000F0BD002301207370F8E70520F6E7C04674
:10518000F008002070B5164B02001D6890B0002D8D
:1051900024D000236B706B4608AE310003A8049343
:1051A000FFF73CFE041E14D13378002B14D01022DC
:1051B0001400F37A1C401A420ED1B38A708B1B0480
:1051C0000F9918432862E961FFF79CFF0123AC6146
:1051D0006B70200010B070BD0324FAE70524F8E7D7
:1051E000F0080020F0B58FB06B4604000E220021BD
:1051F000981D00F0FDFAE36801AD0593238A06AE21
:105200002B80114B310028001F68FFF781FD041E21
:1052100014D13378002B14D010221400F37A1C40E0
:105220001A420ED1B38A708B1B040D991843386251
:10523000F961FFF767FF0123BC617B7020000FB0AD
:10524000F0BD0324FAE7C046F0080020F0B5574649
:105250004546DE464E463E4BE0B59A461D68002365
:1052600083B0070090461360002D6ED0012210001D
:105270006B78184083461A4264D0AA69EE69B61A60
:105280008E425DD880239B009946002E38D0D105F0
:10529000CB0D00294ED1AB78540A013B1C40E4B23F
:1052A000002C37D053461A68686A93680238023B6C
:1052B00098423CD29378516958434118002936D01E
:1052C000AB696118DB05E962DB0D4A46D41AB442CA
:1052D00000D934000122380000945242FBF782FFCB
:1052E000002824D143464146AA691B68A2181B190D
:1052F000AA61361B0B60002FC7D03F19002EC6D104
:1053000000239B46584603B0F0BCBB46B246A946B4
:10531000A046F0BD002A0FD1286A012807D95346BC
:105320001A68686293680238023B9842C2D300232D
:105330006B70E7E7E96AC8E7686AFFF789FCECE7A2
:105340000E009FE704239B46DCE705239B46D9E735
:10535000F0080020D421144B30B51C6805006358B8
:105360005A68002A13D1986800280ED01A00083213
:105370006250DA680130013ADA60002A00D1186917
:1053800028609868421C9A6030BD2860FCE7013AAA
:105390005A60002A05D19A682A601868421C1A606F
:1053A000F2E71A680132F7E7F0080020F0B54E4640
:1053B0005746DE464546554BE0B59A461E680023E3
:1053C00087B091461360002E00D19DE001221500A8
:1053D00073781D401A4200D194E0B469F7693F1B0D
:1053E0008F4200D987E0002F00D189E001235B4282
:1053F000984629339C46B4446346AB4622000500D8
:10540000059344E0B378520A013B1A40D4B2002C11
:1054100049D053461B68716A98680239821E02920D
:1054200091424FD29A785B6951439C466144039202
:105430000493002946D0802080008446B269F06938
:10544000D30561186244F162DB0D824226D2B27844
:105450000134944241DA4A1C32638024A400E41AE5
:10546000BC4200D93C0028000094FBF7BBFE00289A
:1054700028D14B464946B2691B68A2181B19B26174
:105480003F1B0B60002D00D02D19002F38D0D10507
:10549000CB0D0029B6D0F16A326BDEE742463263AB
:1054A00001225242D9E70598FFF754FF0100012875
:1054B00008D953461B68706298680239821E0292AE
:1054C0009142AFD300235D467370280007B0F0BC53
:1054D000BB46B246A946A046F0BDB26A002ADDD05E
:1054E0000298023A904208D90398424304988446AD
:1054F00062443263B1E70F0075E700223263ACE724
:105500000025E2E70425E0E70525DEE7F0080020B6
:10551000F0B5454657464E46DE46544BE0B59946F3
:105520001D68002383B0070090461360002D00D152
:1055300098E0012210006B78184001901A4200D1C7
:105540008DE03F321A4000290FD1002A00D07FE0C1
:10555000402293436B7000230193019803B0F0BC89
:10556000BB46B246A946A046F0BDAB69002A02D1AF
:105570005B0A5B02AB61EE69F61A8E4266D8002EBA
:10558000E9D04022934680229200924635E04B4675
:105590001A68686A93680238023B984245D2937849
:1055A00051695843411800293FD061180020E96231
:1055B000FBF7A2FE002838D15A466B78AC6913433A
:1055C000E4056B70E40D53461C1BB44200D9340053
:1055D00021003800FBF790FE002826D142464146C4
:1055E000AB691268E3181219AB613F19361B0A60E8
:1055F000DB051DD0002EAED0AB69DA05D40D002A34
:10560000E1D1AA785C0A013A1440E4B2002CBED180
:10561000002B17D1286A012807D94B461A686862FF
:1056200093680238023B9842B9D300236B7094E729
:105630000021FBF761FE0028F7D140226B789343ED
:105640006B70D7E7686AFFF703FBE4E70E0096E7A5
:105650000020FBF751FE0028E7D16B7878E70423A0
:1056600001937AE70523019377E7C046F00800200D
:1056700030B5114B04001B680A008DB0002B17D009
:1056800001AB04AD29004360FFF7C8FB00280DD132
:105690002B78002B07D0EB7ADB060BD5AA8A6B8B15
:1056A00012041343A3602000FFF798FB0DB030BD38
:1056B0000520FBE70320F9E7F008002030B5134B85
:1056C00004001B680D008DB0002B1DD001AB4360A2
:1056D000002916D004A9FFF71BFB0923C3400120B2
:1056E000DB070CD52A00200004A9FFF765FA20008B
:1056F000FFF7D2FAC31E5A1E93415B4218400DB009
:1057000030BDFFF76BFBFAE70520F8E7F008002053
:10571000F0B51A4B05001B680C0017008DB0002B6C
:1057200029D001AB4360FFF759FB061E02D03000C1
:105730000DB0F0BD280004A9FFF7EAFA061E0CD050
:10574000F5E72800FFF7A8FA002812D1280004A9DD
:10575000FFF7DEFA013C00280BD1002CF1D1280024
:105760003A0004A9FFF728FA2800FFF795FA032862
:10577000DDD00600DBE70526D9E7C046F0080020AB
:10578000F0B5040089B000281DD0FFF727FB0025E5
:10579000002812D16E46102709E0F37A20003B4022
:1057A0005A425341ED18FFF777FA002805D131002E
:1057B0002000FFF7ADFA0028EFD02000FFF70EFB26
:1057C000280009B0F0BD0025FAE7C04610B58842B0
:1057D00002D98B18984208D300239A4207D0CC5C98
:1057E000C4540133F9E78B5C8354013AFBD210BDFA
:1057F00003008218934200D1704719700133F9E712
:10580000014B18687047C0461C00002070B5002688
:105810000C4C0D4D641BA410A64209D1002600F0CB
:1058200035FE0A4C0A4D641BA410A64205D170BD7A
:10583000B300EB5898470136EEE7B300EB589847B2
:105840000136F2E7406D0008406D0008486D000821
:10585000406D0008002310B59A4200D110BDCC5C09
:10586000C4540133F8E703685A0004D580221206B5
:105870001343C01870475B005B08FAE7F0B585B0CA
:1058800015000E1E029026D000274B1E0193009398
:10589000009BFB18DC0FE4186410E3000393029BE9
:1058A000E2009E183000FFF7DEFF019BA34215D0F7
:1058B000A84204D9A7420DD0631E0093E8E7029BDB
:1058C000E00008301818FFF7CEFF0138A84202D2D6
:1058D000671CDDE70026300005B0F0BDA842E9D81E
:1058E000F9E7000003000548012B06D00448022B0D
:1058F00003D00020834200D102487047F75E0008C1
:10590000015F0008ED5E000830B5214B050085B051
:105910008C1E002B0AD0200003A900E000BF002845
:1059200009D1002309202B6105B030BD194B1A485D
:105930001B1ADB10039322000399FFF79FFF041E3D
:10594000EFD0FFF790FF6368A864012B1CD0201DE7
:10595000002B10DA01232B650368E864002B0EDAB4
:105960001801000FFFF7BEFF03005A425A410920F9
:1059700052421040D7E7FFF776FF0023EBE7FFF72F
:1059800072FF03000020CEE700230520CBE7C046CE
:1059900000000000406D0008906B0008036810B51F
:1059A0000400DA0704D450309B0719D5FAF766FCD7
:1059B00023685B0703D42000D830FAF763FC236820
:1059C0001B0704D420005930FF30FAF75FFC23682E
:1059D000DB0604D42000D930FF30FAF75BFC10BDA1
:1059E000FAF748FCE4E703000068002800D0C0187C
:1059F0007047704770B505000C002800216CFFF758
:105A000083FF061E01D000F0F0FC236C22006B61C6
:105A1000290001202B6998470828EED00728F2D1E9
:105A20003000216CFFF7E5FF201DFAF70DFC0000A8
:105A3000F0B500262A4CC368A5440493836904008A
:105A400017000431402207A8059306ADFFF702FFB7
:105A5000069602962000296CFFF756FF09370600CC
:105A60000390FFB200282FD1F4222B6C2900636130
:105A7000520080A8FFF7EEFE23692100380080AABB
:105A800098478E9B0290AB64059B390001932200DE
:105A900023000120049F0095B847002818D1002E4C
:105AA00018D1F4222800520080A9FFF7D3FE029BF0
:105AB0003700082BCED0072B0AD13000296CFFF716
:105AC00098FF07A8FAF7C0FB10231F43AB6BDAE778
:105AD000092303930398FB239B009D44F0BDC0461C
